:2000A30075FF807E5E7F011EBEFF011FEE4F70F722AFD974BF5FF5D975D900227588507512
:2000C3008921758E09758D962275981022759B8F7E237F001EBEFF011FEE4F70F7AF9B7452
:2000E300CF5FF59B759D032275D10E2275F2FC75A41175A58075A6FF75A71F75D50375E173
:200103001175E2402275B2832275A890221200B41200A31200BF1200CC1200D01200EB125C
:2001230000EF12010802010CAF83E582900000F0EFA3F0758A00758C00900000E0FEA3E017
:20014300FFAD8C7C00AA8A7B00EA2CFCEB3DFDC3EC9EED9F40EB22758C00758A0022AF8388
:20016300E582900002F0EFA3F0AF8C7E00AC8A7D00EC2EFEED3FFF900002E0FCA3E0FDC3B1
:0E018300EE9CEF9D40047582012275820022E1
:0E008200900004E4F0E4A3F0E4A3F0E4A3F0A3
:20019100A280E433FF900008F0C00712015AD007A280E433FE8F05B5050E901400C0071273
:2001B1000161E582D00760E8901400C007120161E582D007701A900A00C00712012BD00729
:2001D100EF6007900008E4F080069000087401F0900004E0FCA3E0FDA3E0FEA3E0FFEC2CBE
:2001F100FCED33FDEE33FEEF33FF900004ECF0EDA3F0EEA3F0EFA3F0900008E0FF530701D0
:200211007E007D007C00900004E0F8A3E0F9A3E0FAA3E0FB900004EF48F0EE49A3F0ED4AB7
:20023100A3F0EC4BA3F0900004E0FCA3E0FDA3E0FEA3E0FFBC1D12BDFC0FBECF0CBF1A092F
:200251009000E8E4F075820122BCE213BD0310BE300DBFE50A9000E87401F0758201227591
:20027100820022AF83E582900009F0EFA3F0C2AF90000CA280E433F0C2997599C01099021B
:2002910080FB75990210990280FB75991A10990280FB7599CF10990280FB7599FC10990296
:2002B10080FB75991D3099FD900009E0FEA3E0FFEE24FCFEEF34FFFF7C007D00C3EC9EED68
:2002D1009F400302042490000BE4F07A007B00C007C006C005C004C003C00212015AD002C3
:2002F100D003D004D005D006D00790000CE0F9C006C007A280E433F88907B507028006D0ED
:2003110007D006802AD007D006901400C007C006C005C004C003C002C001120161E582D0ED
:2003310001D002D003D004D005D006D00760C0901400C007C006C005C004C003C00212013E
:2003510061E582D002D003D004D005D006D0077032900A00C007C006C005C004C003C002F2
:2003710012012BD002D003D004D005D006D00790000CE0F9600790000CE4F0800690000CC5
:200391007401F0C006C00790000CE0F9530101890079007E008A077407C39FF5F005F0E8E0
:2003B100800225E0D5F0FBF890000BE0FF48F00ABA00010BC3EA9408EB9400D007D00650A6
:2003D100030202E09000E8E0FB600A90000BE0FB90000BF4F090000BE0FBBBC012C29975A0
:2003F10099DB10990280FB7599DC20991E80FBBBDB12C2997599DB10990280FB7599DD20F9
:1E041100990980FBC2998B993099FD0CBC00010D0202CDC2997599C03099FDD2AF2232
:010796000062
:0B0090009000127455F0900014E4F092
:20042F00AFF0AE83E58290000FF0EEA3F0EFA3F090000FE0FDA3E0FEA3E0FF90000DE0FBED
:20044F00A3E0FC79007A00C3E99BEA9C4003020508C003C004E92DF8EA3EFB8F0488828B1C
:20046F00838CF0120776F508E4F509F50AD004D003C003C004C007C006C005C004C003C03A
:20048F0002C00112015AD001D002D003D004D005D006D0077407C39509F8E4950AFC88F086
:2004AF0005F0E5088002C313D5F0FB540124FF9297D004D003901400C007C006C005C00431
:2004CF00C003C002C001120161E582D001D002D003D004D005D006D00760DA0509E4B50936
:2004EF0002050AC3E5099408E50A9400500302048009B900010A020456C2AFC2AFC2997558
:20050F0099C010990280FB75990A10990280FB7599C03099FDD2AF2212015A900014E0FFE8
:20052F007E007407C39FFFE49EFE900012E0FD8FF005F0ED8002C313D5F0FB5401FF9000F6
:20054F0013F0EF24FF9297901400120161E58260F6900014E02401F0900014E0FFBF080096
:08056F004005900014E4F022A5
:04000000020029329F
:01000B0032C2
:0100130032BA
:01001B0032B2
:030023000205FAD9
:08009B009000E7E4F0020026EA
:0300260002057759
:20057700120110D2B175A0FFD2B2D2B37C407D427E0F7F001CBCFF091DBDFF051EBEFF0180
:200597001FEC4D4E4F70EDC2B2C2B39000EBE0FFBF01339000E9E0FF60209000E9E4F09007
:2005B70000ECE0FEA3E0FF90000DEEF0EFA3F090001575F00012042F80D19000EAE0FF6082
:2005D700CA12052780C5120191AF82BF01BDD2B39000EEE0FEA3E0FF8E828F83120274C296
:2005F700B380A8C0E0C082C083C007C006C005C004C0D075D000209803020760AF999000FD
:20061700E7EFF0BFC0119000E9E4F09000ECF0E4A3F0C298020760BF00030206ECBF0B02F8
:200637008013BF0C02805EBF0D030206C6BF0E02802F02075EC2983098FDAF999000E7EF16
:20065700F0BFC0F1C2997599C010990280FB75990A10990280FB7599C030990302075E8015
:20067700F8C2983098FDAF999000E7EFF0C2983098FD7E00AD997C009000EEEC2FF0ED3E9B
:20069700A3F002075EC2983098FDAF999000E7EFF0BF010E9000EB7401F075A000D2B20243
:2006B700075E9000EBE4F075A0FFC2B202075EC2983098FDAF999000E7EFF0BF010990006A
:2006D700EA7401F002075EEF600302075E9000EAE4F002075EC2983098FDAF999000E7EF12
:2006F700F0BFC002805BBFDB20C2983098FDAF999000E7EFF0BFDD089000E774DBF080093D
:20071700BFDC069000E774C0F09000ECE0FEA3E0FFEE2415FEEF3400FF9000E7E0FD8E82FF
:200737008F83F09000ECE0FEA3E0FFC3EE94D1EF940050A19000EC74012EF0E43FA3F080F5
:1F075700949000E97401F0C2981099028000D0D0D004D005D006D007D083D082D0E0320F
:07079700000000000040001B
:06005800E478FFF6D8FD7C
:200036007908E94400601B7A0190079678E875AA00E493F2A308B8000205AAD9F4DAF275CF
:02005600AAFFFF
:20005E007800E84400600A790075AA00E4F309D8FC78E8E84400600C7901900000E4F0A3AF
:04007E00D8FCD9FAD7
:0D00290075810A120792E58260030200262D
:1C07760020F71430F6148883A88220F507E6A88375830022E280F7E49322E02292
:04079200758200224A
:00000001FF
