:2000AE0075FF807E5E7F011EBEFF011FEE4F70F722AFD974BF5FF5D975D900227588507507
:2000CE008921758E09758D962275981022759B8F7E237F001EBEFF011FEE4F70F7AF9B7447
:2000EE00CF5FF59B759D032275D10E2275F2FC75A41175A58075A6FF75A71F75D50375E168
:20010E001175E2402275B2832275A890221200BF1200AE1200CA1200D71200DB1200F6120F
:20012E0000FA120113020117AE82AF83758A00758C00AD8C7C00AA8A7B00EA2CFCEB3DFD7A
:20014E00C3EC9EED9F40EB22758C00758A0022AE82AF83AD8C7C00AA8A7B00EA2CFCEB3D49
:10016E00FDC3EC9EED9F4004758201227582002234
:0C008200E4F509F50AF50BF50C75080013
:20017E00A280E433FFC007120156D007A280E433FE8F05B5050E901400C00712015DE5824D
:20019E00D00760E8901400C00712015DE582D0077013900A00C007120136D007EF60047F33
:2001BE000080027F01E5092509F509E50A33F50AE50B33F50BE50C33F50C530701E4FEFD62
:2001DE00FCEF4209EE420AED420BEC420C741DB5091674FCB50A1174CFB50B0C741AB50C1A
:2001FE00077508007582012274E2B509167403B50A117430B50B0C74E5B50C07750801754E
:20021E0082012275820022AE82AF83C2AFA280E433FDC2997599C010990280FB759902108A
:20023E00990280FB75991A10990280FB7599CF10990280FB7599FC10990280FB75991D30AE
:20025E0099FDEE24FCFEEF34FFFFE4F50DF50EC3E50D9EE50E9F400302035FE4F511F50F5A
:20027E00F510C007C006C005120156D005D006D007A280E433FC8D03B50316901400C00720
:20029E00C006C00512015DE582D005D006D00760E0901400C007C006C00512015DE582D07F
:2002BE0005D006D007701B900A00C007C006C005120136D005D006D007ED60047D008002DC
:2002DE007D0174015DF97A007B007C00A80F7407C398F5F005F0E9800225E0D5F0FBF94274
:2002FE0011050FE4B50F020510C3E50F9408E51094005003020280E5086005E511F4F51107
:20031E0074C0B51112C2997599DB10990280FB7599DC20992180FB74DBB51112C29975997A
:20033E00DB10990280FB7599DD20990A80FBC2998511993099FD050DE4B50D02050E020254
:0C035E006DC2997599C03099FDD2AF2294
:06008E00751755751900FD
:20036A0085821485831585F0167B007C00C3EB9512EC95134003020401EB2514F8EC351534
:20038A00F9AA16888289838AF012060CFA78007900C004C003C002C001C000120156D000F8
:2003AA00D001D002D003D0047407C398FEE499FF8EF005F0EA8002C313D5F0FB5401FF24AC
:2003CA00FF9297901400C004C003C002C001C00012015DE582D000D001D002D003D004602C
:2003EA00E208B8000109C3E89408E9940040A20BBB00010C020377C2AFC2AFC2997599C047
:20040A0010990280FB75990A10990280FB7599C03099FDD2AF22120156AE197F007407C34A
:20042A009EFEE49FFF8EF005F0E5178002C313D5F0FB5401F51824FF929790140012015D4B
:10044A00E58260F6051974F825195003751900221A
:04000000020029329F
:01000B0032C2
:0100130032BA
:01001B0032B2
:030023000204C212
:1A009400752100751A00751B00751C00E4F51DF51E751F4075200002002672
:0300260002045A77
:20045A0012011BD2B175A0FFD2B2D2B37C407D427E0F7F001CBCFF091DBDFF051EBEFF0193
:20047A001FEC4D4E4F70EDC2B2C2B37401B51C21E51A6014751A00851D12851E13900000C4
:20049A0075F00012036A80E3E51B60DF12042080DA12017EAF82BF01D2D2B3851F82852088
:2004BA0083120225C2B380C3C0E0C082C083C007C006C005C004C0D075D0002098030205DC
:2004DA00F685992174C0B5210CE4F51AF51DF51EC2980205F67401B5210302059F740BB520
:2004FA0021028019740CB52102805D740DB52103020585740EB52102802D0205F4C298307F
:20051A0098FD85992174C0B521F3C2997599C010990280FB75990A10990280FB7599C03065
:20053A0099030205F480F8C2983098FD859921C2983098FDAE217F00AC998C05E4FC2EF5EE
:20055A001FED3FF5200205F4C2983098FD8599217401B5210B751C0175A000D2B20205F44C
:20057A00751C0075A0FFC2B20205F4C2983098FD8599217401B52105751B01805DE52170BB
:20059A0059F51B8055C2983098FD85992174C0B52102804374DBB5211AC2983098FD85995A
:2005BA002174DDB521057521DB800874DCB521037521C0E51D2400F582E51E3400F583E52B
:2005DA0021F0C3E51D940BE51E940050B8051DE4B51DB2051E80AE751A01C29810990280FD
:1205FA0000D0D0D004D005D006D007D083D082D0E03272
:06005800E478FFF6D8FD7C
:200036007900E94400601B7A0090062C780C75AA00E493F2A308B8000205AAD9F4DAF2751F
:02005600AAFFFF
:20005E007800E84400600A790075AA00E4F309D8FC780CE84400600C7901900000E4F0A38B
:04007E00D8FCD9FAD7
:0D002900758121120628E582600302002681
:1C060C0020F71430F6148883A88220F507E6A88375830022E280F7E49322E022FD
:0406280075820022B5
:00000001FF
