:0400000002002B329D
:01000B0032C2
:0100130032BA
:01001B0032B2
:03002300020119BE
:17008400750F00750800750900750A00E4F50BF50C750D40750E003D
:0300AD0002002628
:050026001200B080FE95
:2000B0001205B2D2B175A0FFD2B2D2B37C407D427E0F7F001CBCFF091DBDFF051EBEFF01A6
:2000D0001FEC4D4E4F70EDC2B2C2B37401B50A21E5086014750800850B1A850C1B900000BC
:2000F00075F00012045380E3E50960DF12050B80DA120262AF82BF01D2D2B3850D82850EB1
:200110008312030BC2B380C322C0E0C082C083C007C006C005C004C0D075D0002098030285
:20013000024C85990F74C0B50F0CE4F508F50BF50CC29802024CE4B50F030201F5740BB5CD
:200150000F028019740CB50F02805D740DB50F030201DB740EB50F02802D02024AC29830CF
:2001700098FD85990F74C0B50FF3C2997599C010990280FB75990A10990280FB7599C03037
:20019000990302024A80F8C2983098FD85990FC2983098FDAE0F7F00AC998C05E4FC2EF56D
:2001B0000DED3FF50E02024AC2983098FD85990F7401B50F0B750A0175A000D2B202024AAE
:2001D000750A0075A0FFC2B202024AC2983098FD85990F7401B50F05750901805DE50F7070
:2001F00059F5098055C2983098FD85990F74C0B50F02804374DBB50F1AC2983098FD859950
:200210000F74DDB50F05750FDB800874DCB50F03750FC0E50B2400F582E50C3400F583E556
:200230000FF0C3E50B940BE50C940050B8050BE4B50BB2050C80AE750801C2981099028028
:1202500000D0D0D004D005D006D007D083D082D0E0321F
:0C009B00E4F511F512F513F514751000D2
:20026200A280E433FFC0071205EED007A280E433FE8F05B5050E901400C0071205F5E58230
:20028200D00760E8901400C0071205F5E582D0077013900A00C0071205CED007EF60047F16
:2002A2000080027F01E5112511F511E51233F512E51333F513E51433F514530701E4FEFD35
:2002C200FCEF4211EE4212ED4213EC4214741DB5111774FCB5121274CFB5130D741AB514F2
:2002E20008751000758201801F74E2B511177403B512127430B5130D74E5B514087510012C
:20030200758201800375820022AE82AF83C2AFA280E433FDC2997599C010990280FB7599E1
:200322000210990280FB75991A10990280FB7599CF10990280FB7599FC10990280FB759904
:200342001D3099FDEE24FCFEEF34FFFFE4F515F516C3E5159EE5169F4003020448E4F5191A
:20036200F517F518C3E5179408E518940040030203FEC007C006C0051205EED005D006D05E
:2003820007A280E433FC8D03B50316901400C007C006C0051205F5E582D005D006D0076076
:2003A200E0901400C007C006C0051205F5E582D005D006D007701B900A00C007C006C005F9
:2003C2001205CED005D006D007ED60047D0080027D0174015DF97A007B007C00A817740770
:2003E200C398F5F005F0E9800225E0D5F0FBF942190517E4B517020518020366E510600592
:20040200E519F4F51974C0B51912C2997599DB10990280FB7599DC20992180FB74DBB51900
:2004220012C2997599DB10990280FB7599DD20990A80FBC2998519993099FD0515E4B515F5
:11044200020516020353C2997599C03099FDD2AF22A2
:0600A700751F55752100D4
:2004530085821C85831D85F01E7B007C00C3EB951AEC951B40030204ECEB251CF8EC351D27
:20047300F9AA1E888289838AF0120617FA78007900C3E89408E994005057C004C003C0024A
:20049300C001C0001205EED000D001D002D003D0047407C398FEE499FF8EF005F0EA80027A
:2004B300C313D5F0FB5401FF24FF9297901400C004C003C002C001C0001205F5E582D00042
:2004D300D001D002D003D00460E208B800A30980A00BBB00010C020460C2AFC2AFC2997506
:2004F30099C010990280FB75990A10990280FB7599C03099FDD2AF221205EEAE217F00742E
:2005130007C39EFEE49FFF8EF005F0E51F8002C313D5F0FB5401F52024FF929790140012E5
:1205330005F5E58260F6052174F825215003752100221C
:2005450075FF807E5E7F011EBEFF011FEE4F70F722AFD974BF5FF5D975D90022758850756B
:200565008921758E09758D962275981022759B8F7E237F001EBEFF011FEE4F70F7AF9B74AB
:20058500CF5FF59B759D032275D10E2275F2FC75A41175A58075A6FF75A71F75D50375E1CC
:2005A5001175E2402275B2832275A8902212055612054512056112056E12057212058D12CC
:2005C50005911205AA1205AE22AE82AF83758A00758C00AD8C7C00AA8A7B00EA2CFCEB3DD8
:2005E500FDC3EC9EED9F40EB22758C00758A0022AE82AF83AD8C7C00AA8A7B00EA2CFCEBEE
:120605003DFDC3EC9EED9F4005758201800375820022F7
:06005A00E478FFF6D8FD7A
:200038007900E94400601B7A00900637780C75AA00E493F2A308B8000205AAD9F4DAF27512
:02005800AAFFFD
:200060007800E84400600A790075AA00E4F309D8FC780CE84400600C7901900000E4F0A389
:04008000D8FCD9FAD5
:0D002B00758121120633E582600302002674
:1C06170020F71430F6148883A88220F507E6A88375830022E280F7E49322E022F2
:0406330075820022AA
:00000001FF
