:2000A30075FF807E5E7F011EBEFF011FEE4F70F722AFD974BF5FF5D975D900227588507512
:2000C3008921758E09758D962275981022759B8F7E237F001EBEFF011FEE4F70F7AF9B7452
:2000E300CF5FF59B759D032275D10E2275F2FC75A41175A58075A6FF75A71F75D50375E173
:200103001175E2402275B2832275A890221200B41200A31200BF1200CC1200D01200EB125C
:2001230000EF12010812010C22AF83E582900000F0EFA3F0758A00758C00900000E0FEA3C5
:20014300E0FFAD8C7C00AA8A7B00EA2CFCEB3DFDC3EC9EED9F40EB22758C00758A0022AF2B
:2001630083E582900002F0EFA3F0AF8C7E00AC8A7D00EC2EFEED3FFF900002E0FCA3E0FDF1
:10018300C3EE9CEF9D4005758201800375820022BA
:0E008200900004E4F0E4A3F0E4A3F0E4A3F0A3
:20019300A280E433FF900008F0C00712015BD007A280E433FE8F05B5050E901400C0071270
:2001B3000162E582D00760E8901400C007120162E582D007701A900A00C00712012CD00724
:2001D300EF6007900008E4F080069000087401F0900004E0FCA3E0FDA3E0FEA3E0FFEC2CBC
:2001F300FCED33FDEE33FEEF33FF900004ECF0EDA3F0EEA3F0EFA3F0900008E0FF530701CE
:200213007E007D007C00900004E0F8A3E0F9A3E0FAA3E0FB900004EF48F0EE49A3F0ED4AB5
:20023300A3F0EC4BA3F0900004E0FCA3E0FDA3E0FEA3E0FFBC1D13BDFC10BECF0DBF1A0A29
:200253009000E8E4F0758201801ABCE214BD0311BE300EBFE50B9000E87401F0758201802A
:200273000375820022AF83E582900009F0EFA3F0C2AF90000CA280E433F0C2997599C0103C
:20029300990280FB75990210990280FB75991A10990280FB7599CF10990280FB7599FC1094
:2002B300990280FB75991D3099FD900009E0FEA3E0FFEE24FCFEEF34FFFF7C007D00C3EC56
:2002D3009EED9F400302042890000BE4F07A007B00C007C006C005C004C003C00212015B03
:2002F300D002D003D004D005D006D00790000CE0F9C006C007A280E433F88907B5070280EF
:2003130006D007D006802AD007D006901400C007C006C005C004C003C002C001120162E566
:2003330082D001D002D003D004D005D006D00760C0901400C007C006C005C004C003C002FD
:20035300120162E582D002D003D004D005D006D0077032900A00C007C006C005C004C0039E
:20037300C00212012CD002D003D004D005D006D00790000CE0F9600790000CE4F08006900C
:20039300000C7401F0C006C00790000CE0F9530101890079007E008A077407C39FF5F005AA
:2003B300F0E8800225E0D5F0FBF890000BE0FF48F00ABA00010BC3EA9408EB9400D007D022
:2003D3000650030202E49000E8E0FB600A90000BE0FB90000BF4F090000BE0FBBBC012C252
:2003F300997599DB10990280FB7599DC20991E80FBBBDB12C2997599DB10990280FB7599E6
:20041300DD20990980FBC2998B993099FD0CBC00010D0202D1C2997599C03099FDD2AF222D
:01079B00005D
:0B0090009000127455F0900014E4F092
:20043300AFF0AE83E58290000FF0EEA3F0EFA3F090000FE0FDA3E0FEA3E0FF90000DE0FBE9
:20045300A3E0FC79007A00C3E99BEA9C400302050CC003C004E92DF8EA3EFB8F0488828B14
:20047300838CF012077BF508E4F509F50AD004D003C003C004C007C006C005C004C003C031
:2004930002C00112015BD001D002D003D004D005D006D0077407C39509F8E4950AFC88F081
:2004B30005F0E5088002C313D5F0FB540124FF9297D004D003901400C007C006C005C0042D
:2004D300C003C002C001120162E582D001D002D003D004D005D006D00760DA0509E4B50931
:2004F30002050AC3E5099408E50A9400500302048409B900010A02045AC2AFC2AFC299754C
:2005130099C010990280FB75990A10990280FB7599C03099FDD2AF2212015B900014E0FFE3
:200533007E007407C39FFFE49EFE900012E0FD8FF005F0ED8002C313D5F0FB5401FF9000F2
:2005530013F0EF24FF9297901400120162E58260F6900014E02401F0900014E0FFBF080091
:080573004005900014E4F022A1
:04000000020029329F
:01000B0032C2
:0100130032BA
:01001B0032B2
:030023000205FFD4
:08009B009000E7E4F0020026EA
:0300260002057B55
:20057B00120110D2B175A0FFD2B2D2B37C407D427E0F7F001CBCFF091DBDFF051EBEFF017C
:20059B001FEC4D4E4F70EDC2B2C2B39000EBE0FFBF01339000E9E0FF60209000E9E4F09003
:2005BB0000ECE0FEA3E0FF90000DEEF0EFA3F090001575F00012043380D19000EAE0FF607A
:2005DB00CA12052B80C5120193AF82BF01BDD2B39000EEE0FEA3E0FF8E828F83120278C288
:2005FB00B380A822C0E0C082C083C007C006C005C004C0D075D000209803020765AF9990D2
:20061B0000E7EFF0BFC0119000E9E4F09000ECF0E4A3F0C298020765BF00030206F1BF0BEC
:20063B00028013BF0C02805EBF0D030206CBBF0E02802F020763C2983098FDAF999000E7F5
:20065B00EFF0BFC0F1C2997599C010990280FB75990A10990280FB7599C03099030207639D
:20067B0080F8C2983098FDAF999000E7EFF0C2983098FD7E00AD997C009000EEEC2FF0ED55
:20069B003EA3F0020763C2983098FDAF999000E7EFF0BF010E9000EB7401F075A000D2B2FE
:2006BB000207639000EBE4F075A0FFC2B2020763C2983098FDAF999000E7EFF0BF0109905A
:2006DB0000EA7401F0020763EF60030207639000EAE4F0020763C2983098FDAF999000E7EE
:2006FB00EFF0BFC002805BBFDB20C2983098FDAF999000E7EFF0BFDD089000E774DBF08053
:20071B0009BFDC069000E774C0F09000ECE0FEA3E0FFEE2415FEEF3400FF9000E7E0FD8E74
:20073B00828F83F09000ECE0FEA3E0FFC3EE94D1EF940050A19000EC74012EF0E43FA3F0EF
:20075B0080949000E97401F0C2981099028000D0D0D004D005D006D007D083D082D0E0328A
:07079C000000000000400016
:06005800E478FFF6D8FD7C
:200036007908E94400601B7A0190079B78E875AA00E493F2A308B8000205AAD9F4DAF275CA
:02005600AAFFFF
:20005E007800E84400600A790075AA00E4F309D8FC78E8E84400600C7901900000E4F0A3AF
:04007E00D8FCD9FAD7
:0D00290075810A120797E582600302002628
:1C077B0020F71430F6148883A88220F507E6A88375830022E280F7E49322E0228D
:040797007582002245
:00000001FF
